{
  "contractName": "Adoption",
  "abi": [
    {
      "inputs": [
        {
          "internalType": "uint256",
          "name": "petId",
          "type": "uint256"
        },
        {
          "internalType": "string",
          "name": "name",
          "type": "string"
        },
        {
          "internalType": "uint8",
          "name": "age",
          "type": "uint8"
        },
        {
          "internalType": "string",
          "name": "breed",
          "type": "string"
        },
        {
          "internalType": "string",
          "name": "status",
          "type": "string"
        }
      ],
      "stateMutability": "nonpayable",
      "type": "constructor"
    },
    {
      "inputs": [
        {
          "internalType": "uint256",
          "name": "",
          "type": "uint256"
        }
      ],
      "name": "adopters",
      "outputs": [
        {
          "internalType": "address",
          "name": "",
          "type": "address"
        }
      ],
      "stateMutability": "view",
      "type": "function",
      "constant": true
    },
    {
      "inputs": [
        {
          "internalType": "uint256",
          "name": "",
          "type": "uint256"
        }
      ],
      "name": "pets",
      "outputs": [
        {
          "internalType": "string",
          "name": "name",
          "type": "string"
        },
        {
          "internalType": "uint8",
          "name": "age",
          "type": "uint8"
        },
        {
          "internalType": "string",
          "name": "breed",
          "type": "string"
        },
        {
          "internalType": "uint256",
          "name": "petId",
          "type": "uint256"
        },
        {
          "internalType": "string",
          "name": "status",
          "type": "string"
        }
      ],
      "stateMutability": "view",
      "type": "function",
      "constant": true
    },
    {
      "inputs": [
        {
          "internalType": "uint256",
          "name": "petId",
          "type": "uint256"
        }
      ],
      "name": "adopt",
      "outputs": [
        {
          "internalType": "uint256",
          "name": "",
          "type": "uint256"
        }
      ],
      "stateMutability": "nonpayable",
      "type": "function"
    },
    {
      "inputs": [],
      "name": "getAdopters",
      "outputs": [
        {
          "internalType": "address[16]",
          "name": "",
          "type": "address[16]"
        }
      ],
      "stateMutability": "view",
      "type": "function",
      "constant": true
    },
    {
      "inputs": [
        {
          "internalType": "uint256",
          "name": "petId",
          "type": "uint256"
        },
        {
          "internalType": "string",
          "name": "name",
          "type": "string"
        },
        {
          "internalType": "uint8",
          "name": "age",
          "type": "uint8"
        },
        {
          "internalType": "string",
          "name": "breed",
          "type": "string"
        },
        {
          "internalType": "string",
          "name": "status",
          "type": "string"
        }
      ],
      "name": "setPet",
      "outputs": [],
      "stateMutability": "nonpayable",
      "type": "function"
    },
    {
      "inputs": [
        {
          "internalType": "uint256",
          "name": "petId",
          "type": "uint256"
        }
      ],
      "name": "getPet",
      "outputs": [
        {
          "internalType": "string",
          "name": "",
          "type": "string"
        },
        {
          "internalType": "uint8",
          "name": "",
          "type": "uint8"
        },
        {
          "internalType": "string",
          "name": "",
          "type": "string"
        }
      ],
      "stateMutability": "view",
      "type": "function",
      "constant": true
    },
    {
      "inputs": [],
      "name": "getAllPets",
      "outputs": [
        {
          "components": [
            {
              "internalType": "string",
              "name": "name",
              "type": "string"
            },
            {
              "internalType": "uint8",
              "name": "age",
              "type": "uint8"
            },
            {
              "internalType": "string",
              "name": "breed",
              "type": "string"
            },
            {
              "internalType": "uint256",
              "name": "petId",
              "type": "uint256"
            },
            {
              "internalType": "string",
              "name": "status",
              "type": "string"
            }
          ],
          "internalType": "struct Adoption.Pet[16]",
          "name": "",
          "type": "tuple[16]"
        }
      ],
      "stateMutability": "view",
      "type": "function",
      "constant": true
    }
  ],
  "bytecode": "0x60806040523480156200001157600080fd5b506040516200124d3803806200124d8339810160408190526200003491620001c4565b600f8511156200004357600080fd5b6040518060a001604052808581526020018460ff16815260200183815260200186815260200182815250601086601081106200008357620000836200027b565b6005020160008201518160000190816200009e919062000320565b50602082015160018201805460ff191660ff90921691909117905560408201516002820190620000cf908262000320565b506060820151600382015560808201516004820190620000f0908262000320565b509050505050505050620003ec565b634e487b7160e01b600052604160045260246000fd5b600082601f8301126200012757600080fd5b81516001600160401b0380821115620001445762000144620000ff565b604051601f8301601f19908116603f011681019082821181831017156200016f576200016f620000ff565b816040528381526020925086838588010111156200018c57600080fd5b600091505b83821015620001b0578582018301518183018401529082019062000191565b600093810190920192909252949350505050565b600080600080600060a08688031215620001dd57600080fd5b855160208701519095506001600160401b0380821115620001fd57600080fd5b6200020b89838a0162000115565b95506040880151915060ff821682146200022457600080fd5b6060880151919450808211156200023a57600080fd5b6200024889838a0162000115565b935060808801519150808211156200025f57600080fd5b506200026e8882890162000115565b9150509295509295909350565b634e487b7160e01b600052603260045260246000fd5b600181811c90821680620002a657607f821691505b602082108103620002c757634e487b7160e01b600052602260045260246000fd5b50919050565b601f8211156200031b57600081815260208120601f850160051c81016020861015620002f65750805b601f850160051c820191505b81811015620003175782815560010162000302565b5050505b505050565b81516001600160401b038111156200033c576200033c620000ff565b62000354816200034d845462000291565b84620002cd565b602080601f8311600181146200038c5760008415620003735750858301515b600019600386901b1c1916600185901b17855562000317565b600085815260208120601f198616915b82811015620003bd578886015182559484019460019091019084016200039c565b5085821015620003dc5787850151600019600388901b60f8161c191681555b5050505050600190811b01905550565b610e5180620003fc6000396000f3fe608060405234801561001057600080fd5b506004361061007d5760003560e01c80635b236d971161005b5780635b236d97146100ed5780638588b2c514610102578063b0ccf48e14610123578063cfb869bf1461013857600080fd5b80633de4eb171461008257806343ae80d3146100a057806359d55194146100cb575b600080fd5b61008a61015c565b604051610097919061099e565b60405180910390f35b6100b36100ae3660046109d9565b6101a2565b6040516001600160a01b039091168152602001610097565b6100de6100d93660046109d9565b6101c2565b60405161009793929190610a38565b6100f56103e6565b6040516100979190610a70565b6101156101103660046109d9565b610603565b604051908152602001610097565b610136610131366004610bbb565b610690565b005b61014b6101463660046109d9565b61074c565b604051610097959493929190610c68565b610164610924565b604080516102008101918290529060009060109082845b81546001600160a01b0316815260019091019060200180831161017b575050505050905090565b600081601081106101b257600080fd5b01546001600160a01b0316905081565b6060600081600f8411156101d557600080fd5b6000601085601081106101ea576101ea610cbc565b600502016040518060a001604052908160008201805461020990610cd2565b80601f016020809104026020016040519081016040528092919081815260200182805461023590610cd2565b80156102825780601f1061025757610100808354040283529160200191610282565b820191906000526020600020905b81548152906001019060200180831161026557829003601f168201915b5050509183525050600182015460ff1660208201526002820180546040909201916102ac90610cd2565b80601f01602080910402602001604051908101604052809291908181526020018280546102d890610cd2565b80156103255780601f106102fa57610100808354040283529160200191610325565b820191906000526020600020905b81548152906001019060200180831161030857829003601f168201915b505050505081526020016003820154815260200160048201805461034890610cd2565b80601f016020809104026020016040519081016040528092919081815260200182805461037490610cd2565b80156103c15780601f10610396576101008083540402835291602001916103c1565b820191906000526020600020905b8154815290600101906020018083116103a457829003601f168201915b5050509190925250508151602083015160409093015190989297509550909350505050565b6103ee610943565b6040805161020081019091526010806000835b828210156105fa578382600502016040518060a001604052908160008201805461042a90610cd2565b80601f016020809104026020016040519081016040528092919081815260200182805461045690610cd2565b80156104a35780601f10610478576101008083540402835291602001916104a3565b820191906000526020600020905b81548152906001019060200180831161048657829003601f168201915b5050509183525050600182015460ff1660208201526002820180546040909201916104cd90610cd2565b80601f01602080910402602001604051908101604052809291908181526020018280546104f990610cd2565b80156105465780601f1061051b57610100808354040283529160200191610546565b820191906000526020600020905b81548152906001019060200180831161052957829003601f168201915b505050505081526020016003820154815260200160048201805461056990610cd2565b80601f016020809104026020016040519081016040528092919081815260200182805461059590610cd2565b80156105e25780601f106105b7576101008083540402835291602001916105e2565b820191906000526020600020905b8154815290600101906020018083116105c557829003601f168201915b50505050508152505081526020019060010190610401565b50505050905090565b6000600f82111561061357600080fd5b336000836010811061062757610627610cbc565b0180546001600160a01b0319166001600160a01b039290921691909117905560408051808201909152600781526610591bdc1d195960ca1b602082015260108381811061067657610676610cbc565b6005020160040190816106899190610d5b565b5090919050565b600f85111561069e57600080fd5b6040518060a001604052808581526020018460ff16815260200183815260200186815260200182815250601086601081106106db576106db610cbc565b6005020160008201518160000190816106f49190610d5b565b50602082015160018201805460ff191660ff909216919091179055604082015160028201906107239082610d5b565b5060608201516003820155608082015160048201906107429082610d5b565b5050505050505050565b6010816010811061075c57600080fd5b600502018054909150819061077090610cd2565b80601f016020809104026020016040519081016040528092919081815260200182805461079c90610cd2565b80156107e95780601f106107be576101008083540402835291602001916107e9565b820191906000526020600020905b8154815290600101906020018083116107cc57829003601f168201915b5050506001840154600285018054949560ff90921694919350915061080d90610cd2565b80601f016020809104026020016040519081016040528092919081815260200182805461083990610cd2565b80156108865780601f1061085b57610100808354040283529160200191610886565b820191906000526020600020905b81548152906001019060200180831161086957829003601f168201915b5050505050908060030154908060040180546108a190610cd2565b80601f01602080910402602001604051908101604052809291908181526020018280546108cd90610cd2565b801561091a5780601f106108ef5761010080835404028352916020019161091a565b820191906000526020600020905b8154815290600101906020018083116108fd57829003601f168201915b5050505050905085565b6040518061020001604052806010906020820280368337509192915050565b6040518061020001604052806010905b6109886040518060a0016040528060608152602001600060ff1681526020016060815260200160008152602001606081525090565b8152602001906001900390816109535790505090565b6102008101818360005b60108110156109d05781516001600160a01b03168352602092830192909101906001016109a8565b50505092915050565b6000602082840312156109eb57600080fd5b5035919050565b6000815180845260005b81811015610a18576020818501810151868301820152016109fc565b506000602082860101526020601f19601f83011685010191505092915050565b606081526000610a4b60608301866109f2565b60ff851660208401528281036040840152610a6681856109f2565b9695505050505050565b6020808252600090610220830183820185845b6010811015610b0c57601f19878503018352815160a08151818752610aaa828801826109f2565b91505060ff87830151168787015260408083015187830382890152610acf83826109f2565b92505050606080830151818801525060808083015192508682038188015250610af881836109f2565b955050509184019190840190600101610a83565b50919695505050505050565b634e487b7160e01b600052604160045260246000fd5b600082601f830112610b3f57600080fd5b813567ffffffffffffffff80821115610b5a57610b5a610b18565b604051601f8301601f19908116603f01168101908282118183101715610b8257610b82610b18565b81604052838152866020858801011115610b9b57600080fd5b836020870160208301376000602085830101528094505050505092915050565b600080600080600060a08688031215610bd357600080fd5b85359450602086013567ffffffffffffffff80821115610bf257600080fd5b610bfe89838a01610b2e565b95506040880135915060ff82168214610c1657600080fd5b90935060608701359080821115610c2c57600080fd5b610c3889838a01610b2e565b93506080880135915080821115610c4e57600080fd5b50610c5b88828901610b2e565b9150509295509295909350565b60a081526000610c7b60a08301886109f2565b60ff871660208401528281036040840152610c9681876109f2565b90508460608401528281036080840152610cb081856109f2565b98975050505050505050565b634e487b7160e01b600052603260045260246000fd5b600181811c90821680610ce657607f821691505b602082108103610d0657634e487b7160e01b600052602260045260246000fd5b50919050565b601f821115610d5657600081815260208120601f850160051c81016020861015610d335750805b601f850160051c820191505b81811015610d5257828155600101610d3f565b5050505b505050565b815167ffffffffffffffff811115610d7557610d75610b18565b610d8981610d838454610cd2565b84610d0c565b602080601f831160018114610dbe5760008415610da65750858301515b600019600386901b1c1916600185901b178555610d52565b600085815260208120601f198616915b82811015610ded57888601518255948401946001909101908401610dce565b5085821015610e0b5787850151600019600388901b60f8161c191681555b5050505050600190811b0190555056fea2646970667358221220349b8ab09af7b29dacf9d1d635868e91d9533de2362c899da2de68c0474f7ff664736f6c63430008120033",
  "immutableReferences": {},
  "source": "// SPDX-License-Identifier: GPL-3.0\r\npragma solidity ^0.8.0;\r\n\r\ncontract Adoption {\r\n    address[16] public adopters;\r\n\r\n    struct Pet {\r\n        string name;\r\n        uint8 age;\r\n        string breed;\r\n        uint256 petId;\r\n        string status;\r\n    }\r\n\r\n    Pet[16] public pets;\r\n\r\n    constructor (uint256 petId, string memory name, uint8 age, string memory breed, string memory status) {\r\n        require(petId >= 0 && petId <= 15);\r\n\r\n        pets[petId] = Pet(name, age, breed, petId, status);\r\n    }\r\n\r\n    // Adopting a pet\r\n    function adopt(uint256 petId) public returns (uint256) {\r\n        require(petId >= 0 && petId <= 15);\r\n\r\n        adopters[petId] = msg.sender;\r\n        pets[petId].status = \"Adopted\";\r\n\r\n        return petId;\r\n    }\r\n\r\n    // Retrieving the adopters\r\n    function getAdopters() public view returns (address[16] memory) {\r\n        return adopters;\r\n    }\r\n\r\n    // Set a pet's details\r\n    function setPet(uint256 petId, string memory name, uint8 age, string memory breed, string memory status) public {\r\n        require(petId >= 0 && petId <= 15);\r\n\r\n        pets[petId] = Pet(name, age, breed, petId, status);\r\n    }\r\n\r\n    // Get a pet's details\r\n    function getPet(uint256 petId) public view returns (string memory, uint8, string memory) {\r\n        require(petId >= 0 && petId <= 15);\r\n\r\n        Pet memory pet = pets[petId];\r\n        return (pet.name, pet.age, pet.breed);\r\n    }\r\n\r\n    //Get pets detail\r\n    function getAllPets() public view returns (Pet[16] memory) {\r\n        return pets;\r\n    }\r\n}\r\n",
  "sourcePath": "C:\\Users\\Rupesh\\Desktop\\3\\Pet-Shop\\contracts\\Adoption.sol",
  "compiler": {
    "name": "solc",
    "version": "0.8.18+commit.87f61d96.Emscripten.clang"
  },
  "schemaVersion": "3.4.12",
  "updatedAt": "2023-02-25T11:05:52.736Z",
  "networkType": "ethereum",
  "devdoc": {
    "kind": "dev",
    "methods": {},
    "version": 1
  },
  "userdoc": {
    "kind": "user",
    "methods": {},
    "version": 1
  }
}